0900242458300000100000000090680000080000000259000000000207200000000000000000000000000000000000000                                                                00100                                                                                          0000000000000000000000000                       
0900242458300000200000000178100000010000000663500000000066350000000006984000000000000000000000000HER-82da5e81-82bc-40a1-bc41-9f9f6e9893a5                        00107HE - Hércules                 HER-82da5e81-82bc-40a1-bc41-9f                              0000000000000000000000000                       
0900242458300000300000000188070000010000000853100000000085310000000008980000000000000000000000000HER-82da5e81-82bc-40a1-bc41-9f9f6e9893a5                        00107HE - Hércules                 HER-82da5e81-82bc-40a1-bc41-9f                              0000000000000000000000000                       
0900242458300000400000000188360000010000001043100000000104310000000010980000000000000000000000000HER-82da5e81-82bc-40a1-bc41-9f9f6e9893a5                        00107HE - Hércules                 HER-82da5e81-82bc-40a1-bc41-9f                              0000000000000000000000000                       

os pedidos que estão na base não tem como saber de que dia se trata?